{
  "contractName": "VotingSystem",
  "abi": [
    {
      "anonymous": false,
      "inputs": [
        {
          "indexed": true,
          "internalType": "uint256",
          "name": "topicIndex",
          "type": "uint256"
        },
        {
          "indexed": false,
          "internalType": "string",
          "name": "option",
          "type": "string"
        }
      ],
      "name": "OptionAdded",
      "type": "event"
    },
    {
      "anonymous": false,
      "inputs": [
        {
          "indexed": false,
          "internalType": "string",
          "name": "topic",
          "type": "string"
        }
      ],
      "name": "TopicAdded",
      "type": "event"
    },
    {
      "anonymous": false,
      "inputs": [
        {
          "indexed": true,
          "internalType": "uint256",
          "name": "topicIndex",
          "type": "uint256"
        },
        {
          "indexed": true,
          "internalType": "address",
          "name": "voter",
          "type": "address"
        },
        {
          "indexed": true,
          "internalType": "string",
          "name": "option",
          "type": "string"
        }
      ],
      "name": "Voted",
      "type": "event"
    },
    {
      "anonymous": false,
      "inputs": [
        {
          "indexed": true,
          "internalType": "uint256",
          "name": "topicIndex",
          "type": "uint256"
        },
        {
          "indexed": false,
          "internalType": "address",
          "name": "voterAddress",
          "type": "address"
        }
      ],
      "name": "VoterRegistered",
      "type": "event"
    },
    {
      "anonymous": false,
      "inputs": [
        {
          "indexed": true,
          "internalType": "uint256",
          "name": "topicIndex",
          "type": "uint256"
        }
      ],
      "name": "VotingFinished",
      "type": "event"
    },
    {
      "anonymous": false,
      "inputs": [
        {
          "indexed": true,
          "internalType": "uint256",
          "name": "topicIndex",
          "type": "uint256"
        }
      ],
      "name": "VotingStarted",
      "type": "event"
    },
    {
      "inputs": [
        {
          "internalType": "uint256",
          "name": "",
          "type": "uint256"
        }
      ],
      "name": "topics",
      "outputs": [
        {
          "internalType": "string",
          "name": "title",
          "type": "string"
        },
        {
          "internalType": "bool",
          "name": "started",
          "type": "bool"
        },
        {
          "internalType": "bool",
          "name": "finished",
          "type": "bool"
        }
      ],
      "stateMutability": "view",
      "type": "function",
      "constant": true
    },
    {
      "inputs": [
        {
          "internalType": "string",
          "name": "_topic",
          "type": "string"
        }
      ],
      "name": "addTopic",
      "outputs": [],
      "stateMutability": "nonpayable",
      "type": "function"
    },
    {
      "inputs": [
        {
          "internalType": "uint256",
          "name": "_topicIndex",
          "type": "uint256"
        },
        {
          "internalType": "string",
          "name": "_option",
          "type": "string"
        }
      ],
      "name": "addOption",
      "outputs": [],
      "stateMutability": "nonpayable",
      "type": "function"
    },
    {
      "inputs": [
        {
          "internalType": "uint256",
          "name": "_topicIndex",
          "type": "uint256"
        },
        {
          "internalType": "address",
          "name": "_voterAddress",
          "type": "address"
        }
      ],
      "name": "registerVoter",
      "outputs": [],
      "stateMutability": "nonpayable",
      "type": "function"
    },
    {
      "inputs": [
        {
          "internalType": "uint256",
          "name": "_topicIndex",
          "type": "uint256"
        }
      ],
      "name": "startVoting",
      "outputs": [],
      "stateMutability": "nonpayable",
      "type": "function"
    },
    {
      "inputs": [
        {
          "internalType": "uint256",
          "name": "_topicIndex",
          "type": "uint256"
        }
      ],
      "name": "finishVoting",
      "outputs": [],
      "stateMutability": "nonpayable",
      "type": "function"
    },
    {
      "inputs": [
        {
          "internalType": "uint256",
          "name": "_topicIndex",
          "type": "uint256"
        },
        {
          "internalType": "uint256",
          "name": "_optionIndex",
          "type": "uint256"
        }
      ],
      "name": "vote",
      "outputs": [],
      "stateMutability": "nonpayable",
      "type": "function"
    },
    {
      "inputs": [],
      "name": "getTopicCount",
      "outputs": [
        {
          "internalType": "uint256",
          "name": "",
          "type": "uint256"
        }
      ],
      "stateMutability": "view",
      "type": "function",
      "constant": true
    },
    {
      "inputs": [
        {
          "internalType": "uint256",
          "name": "_topicIndex",
          "type": "uint256"
        }
      ],
      "name": "getTopic",
      "outputs": [
        {
          "internalType": "string",
          "name": "",
          "type": "string"
        },
        {
          "internalType": "uint256",
          "name": "",
          "type": "uint256"
        },
        {
          "internalType": "bool",
          "name": "",
          "type": "bool"
        },
        {
          "internalType": "bool",
          "name": "",
          "type": "bool"
        }
      ],
      "stateMutability": "view",
      "type": "function",
      "constant": true
    },
    {
      "inputs": [
        {
          "internalType": "uint256",
          "name": "_topicIndex",
          "type": "uint256"
        },
        {
          "internalType": "uint256",
          "name": "_optionIndex",
          "type": "uint256"
        }
      ],
      "name": "getOption",
      "outputs": [
        {
          "internalType": "string",
          "name": "",
          "type": "string"
        }
      ],
      "stateMutability": "view",
      "type": "function",
      "constant": true
    },
    {
      "inputs": [
        {
          "internalType": "uint256",
          "name": "_topicIndex",
          "type": "uint256"
        },
        {
          "internalType": "string",
          "name": "_option",
          "type": "string"
        }
      ],
      "name": "getVoteCount",
      "outputs": [
        {
          "internalType": "uint256",
          "name": "",
          "type": "uint256"
        }
      ],
      "stateMutability": "view",
      "type": "function",
      "constant": true
    },
    {
      "inputs": [],
      "name": "getTopicsWithDetails",
      "outputs": [
        {
          "components": [
            {
              "internalType": "uint256",
              "name": "id",
              "type": "uint256"
            },
            {
              "internalType": "string",
              "name": "title",
              "type": "string"
            },
            {
              "components": [
                {
                  "internalType": "uint256",
                  "name": "id",
                  "type": "uint256"
                },
                {
                  "internalType": "string",
                  "name": "option",
                  "type": "string"
                },
                {
                  "internalType": "uint256",
                  "name": "numberOfVotes",
                  "type": "uint256"
                }
              ],
              "internalType": "struct VotingSystem.OptionDetails[]",
              "name": "options",
              "type": "tuple[]"
            },
            {
              "internalType": "bool",
              "name": "started",
              "type": "bool"
            },
            {
              "internalType": "bool",
              "name": "finished",
              "type": "bool"
            }
          ],
          "internalType": "struct VotingSystem.TopicDetails[]",
          "name": "",
          "type": "tuple[]"
        }
      ],
      "stateMutability": "view",
      "type": "function",
      "constant": true
    },
    {
      "inputs": [],
      "name": "getTopicsOnly",
      "outputs": [
        {
          "components": [
            {
              "internalType": "uint256",
              "name": "id",
              "type": "uint256"
            },
            {
              "internalType": "string",
              "name": "title",
              "type": "string"
            }
          ],
          "internalType": "struct VotingSystem.TopicInfo[]",
          "name": "",
          "type": "tuple[]"
        }
      ],
      "stateMutability": "view",
      "type": "function",
      "constant": true
    },
    {
      "inputs": [
        {
          "internalType": "uint256",
          "name": "_topicIndex",
          "type": "uint256"
        }
      ],
      "name": "getTopicWithOptions",
      "outputs": [
        {
          "components": [
            {
              "internalType": "uint256",
              "name": "id",
              "type": "uint256"
            },
            {
              "internalType": "string",
              "name": "title",
              "type": "string"
            },
            {
              "components": [
                {
                  "internalType": "uint256",
                  "name": "id",
                  "type": "uint256"
                },
                {
                  "internalType": "string",
                  "name": "name",
                  "type": "string"
                }
              ],
              "internalType": "struct VotingSystem.OptionInfo[]",
              "name": "options",
              "type": "tuple[]"
            }
          ],
          "internalType": "struct VotingSystem.TopicWithOptionInfo",
          "name": "",
          "type": "tuple"
        }
      ],
      "stateMutability": "view",
      "type": "function",
      "constant": true
    }
  ],
  "bytecode": "0x608060405234801561001057600080fd5b50613a02806100206000396000f3fe608060405234801561001057600080fd5b50600436106100ea5760003560e01c8063abe7c08e1161008c578063c4ac65b711610066578063c4ac65b714610260578063cc89698c1461027c578063dd61a65d1461029a578063ea57d5d4146102ca576100ea565b8063abe7c08e1461020a578063b384abef14610226578063c3885d8614610242576100ea565b806354110b9d116100c857806354110b9d1461016d578063716588961461018b57806394c790bb146101be5780639ac9585a146101da576100ea565b806318d9adab146100ef5780631ce30927146101215780633d2f5bda14610151575b600080fd5b61010960048036038101906101049190612419565b6102e6565b604051610118939291906124f1565b60405180910390f35b61013b6004803603810190610136919061252f565b6103c2565b604051610148919061256f565b60405180910390f35b61016b60048036038101906101669190612419565b610547565b005b61017561066f565b60405161018291906126e9565b60405180910390f35b6101a560048036038101906101a09190612419565b6107d8565b6040516101b5949392919061271a565b60405180910390f35b6101d860048036038101906101d391906127c4565b610974565b005b6101f460048036038101906101ef9190612419565b610c75565b604051610201919061295a565b60405180910390f35b610224600480360381019061021f9190612419565b610f58565b005b610240600480360381019061023b919061252f565b6110f2565b005b61024a611496565b6040516102579190612bdc565b60405180910390f35b61027a60048036038101906102759190612d33565b6118d6565b005b610284611a8e565b6040516102919190612d7c565b60405180910390f35b6102b460048036038101906102af9190612d97565b611a9a565b6040516102c19190612d7c565b60405180910390f35b6102e460048036038101906102df9190612d97565b611b7f565b005b600081815481106102f657600080fd5b906000526020600020906006020160009150905080600001805461031990612e22565b80601f016020809104026020016040519081016040528092919081815260200182805461034590612e22565b80156103925780601f1061036757610100808354040283529160200191610392565b820191906000526020600020905b81548152906001019060200180831161037557829003601f168201915b5050505050908060050160009054906101000a900460ff16908060050160019054906101000a900460ff16905083565b6060600080549050831061040b576040517f08c379a000000000000000000000000000000000000000000000000000000000815260040161040290612e9f565b60405180910390fd5b6000838154811061041f5761041e612ebf565b5b9060005260206000209060060201600101805490508210610475576040517f08c379a000000000000000000000000000000000000000000000000000000000815260040161046c90612f3a565b60405180910390fd5b6000838154811061048957610488612ebf565b5b906000526020600020906006020160010182815481106104ac576104ab612ebf565b5b9060005260206000200180546104c190612e22565b80601f01602080910402602001604051908101604052809291908181526020018280546104ed90612e22565b801561053a5780601f1061050f5761010080835404028352916020019161053a565b820191906000526020600020905b81548152906001019060200180831161051d57829003601f168201915b5050505050905092915050565b600080549050811061058e576040517f08c379a000000000000000000000000000000000000000000000000000000000815260040161058590612e9f565b60405180910390fd5b600081815481106105a2576105a1612ebf565b5b906000526020600020906006020160050160009054906101000a900460ff1615610601576040517f08c379a00000000000000000000000000000000000000000000000000000000081526004016105f890612fcc565b60405180910390fd5b60016000828154811061061757610616612ebf565b5b906000526020600020906006020160050160006101000a81548160ff021916908315150217905550807fcf33babc496bb6dc2942b39cb7b75766bbbadf7da50d176ff8c513e99114023960405160405180910390a250565b60606000808054905067ffffffffffffffff81111561069157610690612c08565b5b6040519080825280602002602001820160405280156106ca57816020015b6106b7612175565b8152602001906001900390816106af5790505b50905060005b6000805490508110156107d05760405180604001604052808281526020016000838154811061070257610701612ebf565b5b9060005260206000209060060201600001805461071e90612e22565b80601f016020809104026020016040519081016040528092919081815260200182805461074a90612e22565b80156107975780601f1061076c57610100808354040283529160200191610797565b820191906000526020600020905b81548152906001019060200180831161077a57829003601f168201915b50505050508152508282815181106107b2576107b1612ebf565b5b602002602001018190525080806107c89061301b565b9150506106d0565b508091505090565b6060600080600080805490508510610825576040517f08c379a000000000000000000000000000000000000000000000000000000000815260040161081c90612e9f565b60405180910390fd5b6000858154811061083957610838612ebf565b5b90600052602060002090600602016000016000868154811061085e5761085d612ebf565b5b9060005260206000209060060201600101805490506000878154811061088757610886612ebf565b5b906000526020600020906006020160050160009054906101000a900460ff16600088815481106108ba576108b9612ebf565b5b906000526020600020906006020160050160019054906101000a900460ff168380546108e590612e22565b80601f016020809104026020016040519081016040528092919081815260200182805461091190612e22565b801561095e5780601f106109335761010080835404028352916020019161095e565b820191906000526020600020905b81548152906001019060200180831161094157829003601f168201915b5050505050935093509350935093509193509193565b60008054905082106109bb576040517f08c379a00000000000000000000000000000000000000000000000000000000081526004016109b290612e9f565b60405180910390fd5b600073ffffffffffffffffffffffffffffffffffffffff168173ffffffffffffffffffffffffffffffffffffffff1603610a2a576040517f08c379a0000000000000000000000000000000000000000000000000000000008152600401610a21906130af565b60405180910390fd5b60008281548110610a3e57610a3d612ebf565b5b906000526020600020906006020160050160009054906101000a900460ff1615610a9d576040517f08c379a0000000000000000000000000000000000000000000000000000000008152600401610a9490612fcc565b60405180910390fd5b60005b60008381548110610ab457610ab3612ebf565b5b906000526020600020906006020160020180549050811015610bb2578173ffffffffffffffffffffffffffffffffffffffff1660008481548110610afb57610afa612ebf565b5b90600052602060002090600602016002018281548110610b1e57610b1d612ebf565b5b9060005260206000200160009054906101000a900473ffffffffffffffffffffffffffffffffffffffff1673ffffffffffffffffffffffffffffffffffffffff1603610b9f576040517f08c379a0000000000000000000000000000000000000000000000000000000008152600401610b969061311b565b60405180910390fd5b8080610baa9061301b565b915050610aa0565b5060008281548110610bc757610bc6612ebf565b5b9060005260206000209060060201600201819080600181540180825580915050600190039060005260206000200160009091909190916101000a81548173ffffffffffffffffffffffffffffffffffffffff021916908373ffffffffffffffffffffffffffffffffffffffff160217905550817ff45b8429c36d478f9a6d081c4811a819b98aa5b608588bed9d406405cf28247382604051610c69919061314a565b60405180910390a25050565b610c7d61218f565b6000805490508210610cc4576040517f08c379a0000000000000000000000000000000000000000000000000000000008152600401610cbb90612e9f565b60405180910390fd5b6000808381548110610cd957610cd8612ebf565b5b9060005260206000209060060201600101805480602002602001604051908101604052809291908181526020016000905b82821015610db6578382906000526020600020018054610d2990612e22565b80601f0160208091040260200160405190810160405280929190818152602001828054610d5590612e22565b8015610da25780601f10610d7757610100808354040283529160200191610da2565b820191906000526020600020905b815481529060010190602001808311610d8557829003601f168201915b505050505081526020019060010190610d0a565b50505050905060008151905060008167ffffffffffffffff811115610dde57610ddd612c08565b5b604051908082528060200260200182016040528015610e1757816020015b610e046121b0565b815260200190600190039081610dfc5790505b50905060005b82811015610e85576040518060400160405280828152602001858381518110610e4957610e48612ebf565b5b6020026020010151815250828281518110610e6757610e66612ebf565b5b60200260200101819052508080610e7d9061301b565b915050610e1d565b50604051806060016040528086815260200160008781548110610eab57610eaa612ebf565b5b90600052602060002090600602016000018054610ec790612e22565b80601f0160208091040260200160405190810160405280929190818152602001828054610ef390612e22565b8015610f405780601f10610f1557610100808354040283529160200191610f40565b820191906000526020600020905b815481529060010190602001808311610f2357829003601f168201915b50505050508152602001828152509350505050919050565b6000805490508110610f9f576040517f08c379a0000000000000000000000000000000000000000000000000000000008152600401610f9690612e9f565b60405180910390fd5b60008181548110610fb357610fb2612ebf565b5b906000526020600020906006020160050160009054906101000a900460ff16611011576040517f08c379a0000000000000000000000000000000000000000000000000000000008152600401611008906131d7565b60405180910390fd5b6000818154811061102557611024612ebf565b5b906000526020600020906006020160050160019054906101000a900460ff1615611084576040517f08c379a000000000000000000000000000000000000000000000000000000000815260040161107b90613269565b60405180910390fd5b60016000828154811061109a57611099612ebf565b5b906000526020600020906006020160050160016101000a81548160ff021916908315150217905550807f67dd2327eccab76e56070d042e4c2137556510de5aa667f62bf6145d678b9db960405160405180910390a250565b6000805490508210611139576040517f08c379a000000000000000000000000000000000000000000000000000000000815260040161113090612e9f565b60405180910390fd5b6000828154811061114d5761114c612ebf565b5b906000526020600020906006020160050160009054906101000a900460ff166111ab576040517f08c379a00000000000000000000000000000000000000000000000000000000081526004016111a2906131d7565b60405180910390fd5b600082815481106111bf576111be612ebf565b5b906000526020600020906006020160050160019054906101000a900460ff161561121e576040517f08c379a000000000000000000000000000000000000000000000000000000000815260040161121590613269565b60405180910390fd5b6112288233611dc9565b611267576040517f08c379a000000000000000000000000000000000000000000000000000000000815260040161125e906132fb565b60405180910390fd5b6000828154811061127b5761127a612ebf565b5b90600052602060002090600602016001018054905081106112d1576040517f08c379a00000000000000000000000000000000000000000000000000000000081526004016112c890612f3a565b60405180910390fd5b6112db8233611f01565b1561131b576040517f08c379a00000000000000000000000000000000000000000000000000000000081526004016113129061338d565b60405180910390fd5b6000828154811061132f5761132e612ebf565b5b9060005260206000209060060201600301818154811061135257611351612ebf565b5b90600052602060002001600081548092919061136d9061301b565b91905055506000828154811061138657611385612ebf565b5b9060005260206000209060060201600401339080600181540180825580915050600190039060005260206000200160009091909190916101000a81548173ffffffffffffffffffffffffffffffffffffffff021916908373ffffffffffffffffffffffffffffffffffffffff1602179055506000828154811061140c5761140b612ebf565b5b9060005260206000209060060201600101818154811061142f5761142e612ebf565b5b906000526020600020016040516114469190613450565b60405180910390203373ffffffffffffffffffffffffffffffffffffffff16837f909b43dcc56d91024768bbc5c8d56441234580b2fd6176844960cbc7218cc0b560405160405180910390a45050565b60606000808054905067ffffffffffffffff8111156114b8576114b7612c08565b5b6040519080825280602002602001820160405280156114f157816020015b6114de6121ca565b8152602001906001900390816114d65790505b50905060005b6000805490508110156118ce57600080828154811061151957611518612ebf565b5b9060005260206000209060060201600101805480602002602001604051908101604052809291908181526020016000905b828210156115f657838290600052602060002001805461156990612e22565b80601f016020809104026020016040519081016040528092919081815260200182805461159590612e22565b80156115e25780601f106115b7576101008083540402835291602001916115e2565b820191906000526020600020905b8154815290600101906020018083116115c557829003601f168201915b50505050508152602001906001019061154a565b505050509050600080838154811061161157611610612ebf565b5b906000526020600020906006020160030180548060200260200160405190810160405280929190818152602001828054801561166c57602002820191906000526020600020905b815481526020019060010190808311611658575b5050505050905060008251905060008167ffffffffffffffff81111561169557611694612c08565b5b6040519080825280602002602001820160405280156116ce57816020015b6116bb6121fd565b8152602001906001900390816116b35790505b50905060005b8281101561175c576040518060600160405280828152602001868381518110611700576116ff612ebf565b5b602002602001015181526020018583815181106117205761171f612ebf565b5b602002602001015181525082828151811061173e5761173d612ebf565b5b602002602001018190525080806117549061301b565b9150506116d4565b506040518060a001604052808681526020016000878154811061178257611781612ebf565b5b9060005260206000209060060201600001805461179e90612e22565b80601f01602080910402602001604051908101604052809291908181526020018280546117ca90612e22565b80156118175780601f106117ec57610100808354040283529160200191611817565b820191906000526020600020905b8154815290600101906020018083116117fa57829003601f168201915b505050505081526020018281526020016000878154811061183b5761183a612ebf565b5b906000526020600020906006020160050160009054906101000a900460ff16151581526020016000878154811061187557611874612ebf565b5b906000526020600020906006020160050160019054906101000a900460ff1615158152508686815181106118ac576118ab612ebf565b5b60200260200101819052505050505080806118c69061301b565b9150506114f7565b508091505090565b600081511161191a576040517f08c379a0000000000000000000000000000000000000000000000000000000008152600401611911906134b3565b60405180910390fd5b60608060608060006040518060e001604052808781526020018681526020018581526020018481526020018381526020016000151581526020016000151581525090806001815401808255809150506001900390600052602060002090600602016000909190919091506000820151816000019081611999919061366a565b5060208201518160010190805190602001906119b692919061221e565b5060408201518160020190805190602001906119d3929190612277565b5060608201518160030190805190602001906119f0929190612301565b506080820151816004019080519060200190611a0d929190612277565b5060a08201518160050160006101000a81548160ff02191690831515021790555060c08201518160050160016101000a81548160ff02191690831515021790555050507fc4179300b6563ad720c3426c03189acc5a9efcd8c2cd58e7fd1cc3ed9ec3d44085604051611a7f919061256f565b60405180910390a15050505050565b60008080549050905090565b600080805490508310611ae2576040517f08c379a0000000000000000000000000000000000000000000000000000000008152600401611ad990612e9f565b60405180910390fd5b6000825111611b26576040517f08c379a0000000000000000000000000000000000000000000000000000000008152600401611b1d90613788565b60405180910390fd5b6000611b328484612039565b905060008481548110611b4857611b47612ebf565b5b90600052602060002090600602016003018181548110611b6b57611b6a612ebf565b5b906000526020600020015491505092915050565b6000805490508210611bc6576040517f08c379a0000000000000000000000000000000000000000000000000000000008152600401611bbd90612e9f565b60405180910390fd5b6000815111611c0a576040517f08c379a0000000000000000000000000000000000000000000000000000000008152600401611c01906137f4565b60405180910390fd5b606460008381548110611c2057611c1f612ebf565b5b90600052602060002090600602016001018054905010611c75576040517f08c379a0000000000000000000000000000000000000000000000000000000008152600401611c6c90613886565b60405180910390fd5b60008281548110611c8957611c88612ebf565b5b906000526020600020906006020160050160009054906101000a900460ff1615611ce8576040517f08c379a0000000000000000000000000000000000000000000000000000000008152600401611cdf90612fcc565b60405180910390fd5b60008281548110611cfc57611cfb612ebf565b5b906000526020600020906006020160010181908060018154018082558091505060019003906000526020600020016000909190919091509081611d3f919061366a565b5060008281548110611d5457611d53612ebf565b5b906000526020600020906006020160030160009080600181540180825580915050600190039060005260206000200160009091909190915055817f17d54b10d2f5efe6c5653d2c3f373803d477ce9962212280331f14843d8983fb82604051611dbd919061256f565b60405180910390a25050565b600080805490508310611e11576040517f08c379a0000000000000000000000000000000000000000000000000000000008152600401611e0890612e9f565b60405180910390fd5b60005b60008481548110611e2857611e27612ebf565b5b906000526020600020906006020160020180549050811015611ef5578273ffffffffffffffffffffffffffffffffffffffff1660008581548110611e6f57611e6e612ebf565b5b90600052602060002090600602016002018281548110611e9257611e91612ebf565b5b9060005260206000200160009054906101000a900473ffffffffffffffffffffffffffffffffffffffff1673ffffffffffffffffffffffffffffffffffffffff1603611ee2576001915050611efb565b8080611eed9061301b565b915050611e14565b50600090505b92915050565b600080805490508310611f49576040517f08c379a0000000000000000000000000000000000000000000000000000000008152600401611f4090612e9f565b60405180910390fd5b60005b60008481548110611f6057611f5f612ebf565b5b90600052602060002090600602016004018054905081101561202d578273ffffffffffffffffffffffffffffffffffffffff1660008581548110611fa757611fa6612ebf565b5b90600052602060002090600602016004018281548110611fca57611fc9612ebf565b5b9060005260206000200160009054906101000a900473ffffffffffffffffffffffffffffffffffffffff1673ffffffffffffffffffffffffffffffffffffffff160361201a576001915050612033565b80806120259061301b565b915050611f4c565b50600090505b92915050565b600080805490508310612081576040517f08c379a000000000000000000000000000000000000000000000000000000000815260040161207890612e9f565b60405180910390fd5b60005b6000848154811061209857612097612ebf565b5b906000526020600020906006020160010180549050811015612133578280519060200120600085815481106120d0576120cf612ebf565b5b906000526020600020906006020160010182815481106120f3576120f2612ebf565b5b9060005260206000200160405161210a9190613949565b604051809103902003612120578091505061216f565b808061212b9061301b565b915050612084565b506040517f08c379a0000000000000000000000000000000000000000000000000000000008152600401612166906139ac565b60405180910390fd5b92915050565b604051806040016040528060008152602001606081525090565b60405180606001604052806000815260200160608152602001606081525090565b604051806040016040528060008152602001606081525090565b6040518060a001604052806000815260200160608152602001606081526020016000151581526020016000151581525090565b60405180606001604052806000815260200160608152602001600081525090565b828054828255906000526020600020908101928215612266579160200282015b82811115612265578251829081612255919061366a565b509160200191906001019061223e565b5b509050612273919061234e565b5090565b8280548282559060005260206000209081019282156122f0579160200282015b828111156122ef5782518260006101000a81548173ffffffffffffffffffffffffffffffffffffffff021916908373ffffffffffffffffffffffffffffffffffffffff16021790555091602001919060010190612297565b5b5090506122fd9190612372565b5090565b82805482825590600052602060002090810192821561233d579160200282015b8281111561233c578251825591602001919060010190612321565b5b50905061234a9190612372565b5090565b5b8082111561236e5760008181612365919061238f565b5060010161234f565b5090565b5b8082111561238b576000816000905550600101612373565b5090565b50805461239b90612e22565b6000825580601f106123ad57506123cc565b601f0160209004906000526020600020908101906123cb9190612372565b5b50565b6000604051905090565b600080fd5b600080fd5b6000819050919050565b6123f6816123e3565b811461240157600080fd5b50565b600081359050612413816123ed565b92915050565b60006020828403121561242f5761242e6123d9565b5b600061243d84828501612404565b91505092915050565b600081519050919050565b600082825260208201905092915050565b60005b83811015612480578082015181840152602081019050612465565b60008484015250505050565b6000601f19601f8301169050919050565b60006124a882612446565b6124b28185612451565b93506124c2818560208601612462565b6124cb8161248c565b840191505092915050565b60008115159050919050565b6124eb816124d6565b82525050565b6000606082019050818103600083015261250b818661249d565b905061251a60208301856124e2565b61252760408301846124e2565b949350505050565b60008060408385031215612546576125456123d9565b5b600061255485828601612404565b925050602061256585828601612404565b9150509250929050565b60006020820190508181036000830152612589818461249d565b905092915050565b600081519050919050565b600082825260208201905092915050565b6000819050602082019050919050565b6125c6816123e3565b82525050565b600082825260208201905092915050565b60006125e882612446565b6125f281856125cc565b9350612602818560208601612462565b61260b8161248c565b840191505092915050565b600060408301600083015161262e60008601826125bd565b506020830151848203602086015261264682826125dd565b9150508091505092915050565b600061265f8383612616565b905092915050565b6000602082019050919050565b600061267f82612591565b612689818561259c565b93508360208202850161269b856125ad565b8060005b858110156126d757848403895281516126b88582612653565b94506126c383612667565b925060208a0199505060018101905061269f565b50829750879550505050505092915050565b600060208201905081810360008301526127038184612674565b905092915050565b612714816123e3565b82525050565b60006080820190508181036000830152612734818761249d565b9050612743602083018661270b565b61275060408301856124e2565b61275d60608301846124e2565b95945050505050565b600073ffffffffffffffffffffffffffffffffffffffff82169050919050565b600061279182612766565b9050919050565b6127a181612786565b81146127ac57600080fd5b50565b6000813590506127be81612798565b92915050565b600080604083850312156127db576127da6123d9565b5b60006127e985828601612404565b92505060206127fa858286016127af565b9150509250929050565b600081519050919050565b600082825260208201905092915050565b6000819050602082019050919050565b600060408301600083015161284860008601826125bd565b506020830151848203602086015261286082826125dd565b9150508091505092915050565b60006128798383612830565b905092915050565b6000602082019050919050565b600061289982612804565b6128a3818561280f565b9350836020820285016128b585612820565b8060005b858110156128f157848403895281516128d2858261286d565b94506128dd83612881565b925060208a019950506001810190506128b9565b50829750879550505050505092915050565b600060608301600083015161291b60008601826125bd565b506020830151848203602086015261293382826125dd565b9150506040830151848203604086015261294d828261288e565b9150508091505092915050565b600060208201905081810360008301526129748184612903565b905092915050565b600081519050919050565b600082825260208201905092915050565b6000819050602082019050919050565b600081519050919050565b600082825260208201905092915050565b6000819050602082019050919050565b60006060830160008301516129ec60008601826125bd565b5060208301518482036020860152612a0482826125dd565b9150506040830151612a1960408601826125bd565b508091505092915050565b6000612a3083836129d4565b905092915050565b6000602082019050919050565b6000612a50826129a8565b612a5a81856129b3565b935083602082028501612a6c856129c4565b8060005b85811015612aa85784840389528151612a898582612a24565b9450612a9483612a38565b925060208a01995050600181019050612a70565b50829750879550505050505092915050565b612ac3816124d6565b82525050565b600060a083016000830151612ae160008601826125bd565b5060208301518482036020860152612af982826125dd565b91505060408301518482036040860152612b138282612a45565b9150506060830151612b286060860182612aba565b506080830151612b3b6080860182612aba565b508091505092915050565b6000612b528383612ac9565b905092915050565b6000602082019050919050565b6000612b728261297c565b612b7c8185612987565b935083602082028501612b8e85612998565b8060005b85811015612bca5784840389528151612bab8582612b46565b9450612bb683612b5a565b925060208a01995050600181019050612b92565b50829750879550505050505092915050565b60006020820190508181036000830152612bf68184612b67565b905092915050565b600080fd5b600080fd5b7f4e487b7100000000000000000000000000000000000000000000000000000000600052604160045260246000fd5b612c408261248c565b810181811067ffffffffffffffff82111715612c5f57612c5e612c08565b5b80604052505050565b6000612c726123cf565b9050612c7e8282612c37565b919050565b600067ffffffffffffffff821115612c9e57612c9d612c08565b5b612ca78261248c565b9050602081019050919050565b82818337600083830152505050565b6000612cd6612cd184612c83565b612c68565b905082815260208101848484011115612cf257612cf1612c03565b5b612cfd848285612cb4565b509392505050565b600082601f830112612d1a57612d19612bfe565b5b8135612d2a848260208601612cc3565b91505092915050565b600060208284031215612d4957612d486123d9565b5b600082013567ffffffffffffffff811115612d6757612d666123de565b5b612d7384828501612d05565b91505092915050565b6000602082019050612d91600083018461270b565b92915050565b60008060408385031215612dae57612dad6123d9565b5b6000612dbc85828601612404565b925050602083013567ffffffffffffffff811115612ddd57612ddc6123de565b5b612de985828601612d05565b9150509250929050565b7f4e487b7100000000000000000000000000000000000000000000000000000000600052602260045260246000fd5b60006002820490506001821680612e3a57607f821691505b602082108103612e4d57612e4c612df3565b5b50919050565b7f496e76616c696420746f70696320696e64657800000000000000000000000000600082015250565b6000612e89601383612451565b9150612e9482612e53565b602082019050919050565b60006020820190508181036000830152612eb881612e7c565b9050919050565b7f4e487b7100000000000000000000000000000000000000000000000000000000600052603260045260246000fd5b7f496e76616c6964206f7074696f6e20696e646578000000000000000000000000600082015250565b6000612f24601483612451565b9150612f2f82612eee565b602082019050919050565b60006020820190508181036000830152612f5381612f17565b9050919050565b7f566f74696e672068617320616c7265616479207374617274656420666f72207460008201527f68697320746f7069630000000000000000000000000000000000000000000000602082015250565b6000612fb6602983612451565b9150612fc182612f5a565b604082019050919050565b60006020820190508181036000830152612fe581612fa9565b9050919050565b7f4e487b7100000000000000000000000000000000000000000000000000000000600052601160045260246000fd5b6000613026826123e3565b91507fffffffffffffffffffffffffffffffffffffffffffffffffffffffffffffffff820361305857613057612fec565b5b600182019050919050565b7f496e76616c696420766f74657220616464726573730000000000000000000000600082015250565b6000613099601583612451565b91506130a482613063565b602082019050919050565b600060208201905081810360008301526130c88161308c565b9050919050565b7f566f74657220616c726561647920726567697374657265640000000000000000600082015250565b6000613105601883612451565b9150613110826130cf565b602082019050919050565b60006020820190508181036000830152613134816130f8565b9050919050565b61314481612786565b82525050565b600060208201905061315f600083018461313b565b92915050565b7f566f74696e6720686173206e6f74207374617274656420666f7220746869732060008201527f746f706963000000000000000000000000000000000000000000000000000000602082015250565b60006131c1602583612451565b91506131cc82613165565b604082019050919050565b600060208201905081810360008301526131f0816131b4565b9050919050565b7f566f74696e672068617320616c72656164792066696e697368656420666f722060008201527f7468697320746f70696300000000000000000000000000000000000000000000602082015250565b6000613253602a83612451565b915061325e826131f7565b604082019050919050565b6000602082019050818103600083015261328281613246565b9050919050565b7f596f7520617265206e6f74207265676973746572656420746f20766f7465206660008201527f6f72207468697320746f70696300000000000000000000000000000000000000602082015250565b60006132e5602d83612451565b91506132f082613289565b604082019050919050565b60006020820190508181036000830152613314816132d8565b9050919050565b7f596f75206861766520616c726561647920766f74656420666f7220746869732060008201527f746f706963000000000000000000000000000000000000000000000000000000602082015250565b6000613377602583612451565b91506133828261331b565b604082019050919050565b600060208201905081810360008301526133a68161336a565b9050919050565b600081905092915050565b60008190508160005260206000209050919050565b600081546133da81612e22565b6133e481866133ad565b945060018216600081146133ff576001811461341457613447565b60ff1983168652811515820286019350613447565b61341d856133b8565b60005b8381101561343f57815481890152600182019150602081019050613420565b838801955050505b50505092915050565b600061345c82846133cd565b915081905092915050565b7f546f706963207469746c65206d757374206e6f7420626520656d707479000000600082015250565b600061349d601d83612451565b91506134a882613467565b602082019050919050565b600060208201905081810360008301526134cc81613490565b9050919050565b60006020601f8301049050919050565b600082821b905092915050565b6000600883026135207fffffffffffffffffffffffffffffffffffffffffffffffffffffffffffffffff826134e3565b61352a86836134e3565b95508019841693508086168417925050509392505050565b6000819050919050565b600061356761356261355d846123e3565b613542565b6123e3565b9050919050565b6000819050919050565b6135818361354c565b61359561358d8261356e565b8484546134f0565b825550505050565b600090565b6135aa61359d565b6135b5818484613578565b505050565b5b818110156135d9576135ce6000826135a2565b6001810190506135bb565b5050565b601f82111561361e576135ef816133b8565b6135f8846134d3565b81016020851015613607578190505b61361b613613856134d3565b8301826135ba565b50505b505050565b600082821c905092915050565b600061364160001984600802613623565b1980831691505092915050565b600061365a8383613630565b9150826002028217905092915050565b61367382612446565b67ffffffffffffffff81111561368c5761368b612c08565b5b6136968254612e22565b6136a18282856135dd565b600060209050601f8311600181146136d457600084156136c2578287015190505b6136cc858261364e565b865550613734565b601f1984166136e2866133b8565b60005b8281101561370a578489015182556001820191506020850194506020810190506136e5565b868310156137275784890151613723601f891682613630565b8355505b6001600288020188555050505b505050505050565b7f4f7074696f6e206d757374206e6f7420626520656d7074790000000000000000600082015250565b6000613772601883612451565b915061377d8261373c565b602082019050919050565b600060208201905081810360008301526137a181613765565b9050919050565b7f4f7074696f6e206e616d65206d757374206e6f7420626520656d707479000000600082015250565b60006137de601d83612451565b91506137e9826137a8565b602082019050919050565b6000602082019050818103600083015261380d816137d1565b9050919050565b7f4d6178206f7074696f6e73207265616368656420666f72207468697320746f7060008201527f6963000000000000000000000000000000000000000000000000000000000000602082015250565b6000613870602283612451565b915061387b82613814565b604082019050919050565b6000602082019050818103600083015261389f81613863565b9050919050565b600081905092915050565b60008190508160005260206000209050919050565b600081546138d381612e22565b6138dd81866138a6565b945060018216600081146138f8576001811461390d57613940565b60ff1983168652811515820286019350613940565b613916856138b1565b60005b8381101561393857815481890152600182019150602081019050613919565b838801955050505b50505092915050565b600061395582846138c6565b915081905092915050565b7f4f7074696f6e206e6f7420666f756e6400000000000000000000000000000000600082015250565b6000613996601083612451565b91506139a182613960565b602082019050919050565b600060208201905081810360008301526139c581613989565b905091905056fea26469706673582212209a954e39e1dd00a8d8aaeaacc166be5e529fb4fad09582174a9a7586d45d6e6c64736f6c63430008130033",
  "immutableReferences": {},
  "source": "pragma solidity ^0.8.0;\n\ncontract VotingSystem {\n    struct Topic {\n        string title;\n        string[] options; // Limiting options to 100\n        address[] registeredVoters; // Array to store registered voters' addresses\n        uint256[] numberOfVotes; // Array to store the number of votes for each option\n        address[] activeVoters; // Array to store active voters for this topic\n        bool started; // Flag to indicate if voting has started\n        bool finished; // Flag to indicate if voting has finished\n    }\n\t\n\tstruct TopicInfo {\n\t\tuint256 id;\n\t\tstring title;\n\t}\n\t\n\tstruct TopicDetails {\n\t\tuint256 id;\n\t\tstring title;\n\t\tOptionDetails[] options;\n\t\tbool started;\n\t\tbool finished;\n\t}\n\t\n\tstruct OptionDetails {\n\t\tuint256 id;\n\t\tstring option;\n\t\tuint256 numberOfVotes;\n    }\n\t\n\tstruct TopicWithOptionInfo {\n\t\tuint256 id;\n\t\tstring title;\n\t\tOptionInfo[] options;\n\t}\n\t\n\tstruct OptionInfo {\n\t\tuint256 id;\n\t\tstring name;\n\t}\n\n    Topic[] public topics;\n\n    event TopicAdded(string topic);\n    event OptionAdded(uint256 indexed topicIndex, string option);\n    event VoterRegistered(uint256 indexed topicIndex, address voterAddress);\n    event VotingStarted(uint256 indexed topicIndex);\n    event VotingFinished(uint256 indexed topicIndex);\n    event Voted(uint256 indexed topicIndex, address indexed voter, string indexed option);\n\n    function addTopic(string memory _topic) external {\n        require(bytes(_topic).length > 0, \"Topic title must not be empty\");\n\n        // Initialize options array\n        string[] memory emptyOptions;\n        address[] memory emptyVoters;\n        uint256[] memory emptyNumberOfVotes;\n        address[] memory emptyActiveVoters;\n\n        topics.push(Topic({\n            title: _topic,\n            options: emptyOptions, // Initialize options array\n            registeredVoters: emptyVoters, // Initialize registeredVoters array\n            numberOfVotes: emptyNumberOfVotes, // Initialize number of votes array\n            activeVoters: emptyActiveVoters, // Initialize active voters array\n            started: false, // Initialize started flag\n            finished: false // Initialize finished flag\n        }));\n\n        emit TopicAdded(_topic);\n    }\n\n    function addOption(uint256 _topicIndex, string memory _option) external {\n        require(_topicIndex < topics.length, \"Invalid topic index\");\n        require(bytes(_option).length > 0, \"Option name must not be empty\");\n        require(topics[_topicIndex].options.length < 100, \"Max options reached for this topic\");\n        require(!topics[_topicIndex].started, \"Voting has already started for this topic\");\n\n        topics[_topicIndex].options.push(_option);\n\n        // Initialize vote count for the new option\n        topics[_topicIndex].numberOfVotes.push(0);\n\n        emit OptionAdded(_topicIndex, _option);\n    }\n\n    function registerVoter(uint256 _topicIndex, address _voterAddress) external {\n        require(_topicIndex < topics.length, \"Invalid topic index\");\n        require(_voterAddress != address(0), \"Invalid voter address\");\n        require(!topics[_topicIndex].started, \"Voting has already started for this topic\");\n\n        // Check if voter address already registered for this topic\n        for (uint256 i = 0; i < topics[_topicIndex].registeredVoters.length; i++) {\n            require(topics[_topicIndex].registeredVoters[i] != _voterAddress, \"Voter already registered\");\n        }\n\n        topics[_topicIndex].registeredVoters.push(_voterAddress);\n\n        emit VoterRegistered(_topicIndex, _voterAddress);\n    }\n\n    function startVoting(uint256 _topicIndex) external {\n        require(_topicIndex < topics.length, \"Invalid topic index\");\n        require(!topics[_topicIndex].started, \"Voting has already started for this topic\");\n\n        topics[_topicIndex].started = true;\n\n        emit VotingStarted(_topicIndex);\n    }\n\n    function finishVoting(uint256 _topicIndex) external {\n        require(_topicIndex < topics.length, \"Invalid topic index\");\n        require(topics[_topicIndex].started, \"Voting has not started for this topic\");\n        require(!topics[_topicIndex].finished, \"Voting has already finished for this topic\");\n\n        topics[_topicIndex].finished = true;\n\n        emit VotingFinished(_topicIndex);\n    }\n\n\t function vote(uint256 _topicIndex, uint256 _optionIndex) external {\n\t\trequire(_topicIndex < topics.length, \"Invalid topic index\");\n\t\trequire(topics[_topicIndex].started, \"Voting has not started for this topic\");\n\t\trequire(!topics[_topicIndex].finished, \"Voting has already finished for this topic\");\n\t\trequire(isRegisteredVoter(_topicIndex, msg.sender), \"You are not registered to vote for this topic\");\n\t\trequire(_optionIndex < topics[_topicIndex].options.length, \"Invalid option index\");\n\n\t\t// Check if the voter has already voted for this topic\n\t\trequire(!hasVoted(_topicIndex, msg.sender), \"You have already voted for this topic\");\n\n\t\t// Increment the number of votes for the option\n\t\ttopics[_topicIndex].numberOfVotes[_optionIndex]++;\n\n\t\t// Add the voter to the active voters\n\t\ttopics[_topicIndex].activeVoters.push(msg.sender);\n\n\t\temit Voted(_topicIndex, msg.sender, topics[_topicIndex].options[_optionIndex]);\n\t}\n\n\n    function getTopicCount() external view returns (uint256) {\n        return topics.length;\n    }\n\n    function getTopic(uint256 _topicIndex) external view returns (string memory, uint256, bool, bool) {\n        require(_topicIndex < topics.length, \"Invalid topic index\");\n        return (topics[_topicIndex].title, topics[_topicIndex].options.length, topics[_topicIndex].started, topics[_topicIndex].finished);\n    }\n\n    function getOption(uint256 _topicIndex, uint256 _optionIndex) external view returns (string memory) {\n        require(_topicIndex < topics.length, \"Invalid topic index\");\n        require(_optionIndex < topics[_topicIndex].options.length, \"Invalid option index\");\n        return topics[_topicIndex].options[_optionIndex];\n    }\n\n    function isRegisteredVoter(uint256 _topicIndex, address _voterAddress) internal view returns (bool) {\n        require(_topicIndex < topics.length, \"Invalid topic index\");\n        for (uint256 i = 0; i < topics[_topicIndex].registeredVoters.length; i++) {\n            if (topics[_topicIndex].registeredVoters[i] == _voterAddress) {\n                return true;\n            }\n        }\n        return false;\n    }\n\n    function hasVoted(uint256 _topicIndex, address _voterAddress) internal view returns (bool) {\n        require(_topicIndex < topics.length, \"Invalid topic index\");\n        for (uint256 i = 0; i < topics[_topicIndex].activeVoters.length; i++) {\n            if (topics[_topicIndex].activeVoters[i] == _voterAddress) {\n                return true;\n            }\n        }\n        return false;\n    }\n\n    function findOptionIndex(uint256 _topicIndex, string memory _option) internal view returns (uint256) {\n        require(_topicIndex < topics.length, \"Invalid topic index\");\n        for (uint256 i = 0; i < topics[_topicIndex].options.length; i++) {\n            if (keccak256(bytes(topics[_topicIndex].options[i])) == keccak256(bytes(_option))) {\n                return i;\n            }\n        }\n        revert(\"Option not found\");\n    }\n\n    function getVoteCount(uint256 _topicIndex, string memory _option) external view returns (uint256) {\n        require(_topicIndex < topics.length, \"Invalid topic index\");\n        require(bytes(_option).length > 0, \"Option must not be empty\");\n        uint256 optionIndex = findOptionIndex(_topicIndex, _option);\n        return topics[_topicIndex].numberOfVotes[optionIndex];\n    }\n\t\n\tfunction getTopicsWithDetails() external view returns (TopicDetails[] memory) {\n\t\tTopicDetails[] memory allTopicsWithDetails = new TopicDetails[](topics.length);\n\n\t\tfor (uint256 i = 0; i < topics.length; i++) {\n\t\t\tstring[] memory topicOptions = topics[i].options;\n\t\t\tuint256[] memory topicNumberOfVotes = topics[i].numberOfVotes;\n\t\t\tuint256 numOptions = topicOptions.length;\n\n\t\t\tOptionDetails[] memory optionDetails = new OptionDetails[](numOptions);\n\n\t\t\tfor (uint256 j = 0; j < numOptions; j++) {\n\t\t\t\toptionDetails[j] = OptionDetails({\n\t\t\t\t\tid: j,\n\t\t\t\t\toption: topicOptions[j],\n\t\t\t\t\tnumberOfVotes: topicNumberOfVotes[j]\n\t\t\t\t});\n\t\t\t}\n\n\t\t\tallTopicsWithDetails[i] = TopicDetails({\n\t\t\t\tid: i,\n\t\t\t\ttitle: topics[i].title,\n\t\t\t\toptions: optionDetails,\n\t\t\t\tstarted: topics[i].started,\n\t\t\t\tfinished: topics[i].finished\n\t\t\t});\n\t\t}\n\n\t\treturn allTopicsWithDetails;\n\t}\n\t\n\t\n\tfunction getTopicsOnly() external view returns (TopicInfo[] memory) {\n\t\tTopicInfo[] memory allTopics = new TopicInfo[](topics.length);\n\n\t\tfor (uint256 i = 0; i < topics.length; i++) {\n\t\t\tallTopics[i] = TopicInfo({\n\t\t\t\tid: i,\n\t\t\t\ttitle: topics[i].title\n\t\t\t});\n\t\t}\n\n\t\treturn allTopics;\n\t}\n\t\n\tfunction getTopicWithOptions(uint256 _topicIndex) external view returns (TopicWithOptionInfo memory) {\n\t\trequire(_topicIndex < topics.length, \"Invalid topic index\");\n\n\t\tstring[] memory topicOptions = topics[_topicIndex].options;\n\t\tuint256 numOptions = topicOptions.length;\n\n\t\tOptionInfo[] memory allOptions = new OptionInfo[](numOptions);\n\n\t\tfor (uint256 i = 0; i < numOptions; i++) {\n\t\t\tallOptions[i] = OptionInfo({\n\t\t\t\tid: i,\n\t\t\t\tname: topicOptions[i]\n\t\t\t});\n\t\t}\n\n\t\treturn TopicWithOptionInfo({\n\t\t\tid: _topicIndex,\n\t\t\ttitle: topics[_topicIndex].title,\n\t\t\toptions: allOptions\n\t\t});\n\t}\n}\n",
  "sourcePath": "C:\\Work\\BlockChain\\VotingSystem\\contracts\\VotingSystem.sol",
  "compiler": {
    "name": "solc",
    "version": "0.8.19+commit.7dd6d404.Emscripten.clang"
  },
  "schemaVersion": "3.4.16",
  "updatedAt": "2024-06-10T08:58:15.590Z",
  "networkType": "ethereum",
  "devdoc": {
    "kind": "dev",
    "methods": {},
    "version": 1
  },
  "userdoc": {
    "kind": "user",
    "methods": {},
    "version": 1
  }
}